8=FIX.4.4|9=178|35=D|49=A|56=B|1=accountA|6=0|11=00000001|12=0.0002|13=2|14=|15=GBp|17=|1
8=FIX.4.4|9=178|35=8|49=A|56=B|1=accountA|6=0|11=00000001|12=0.0002|13=2|14=|15=GBp|17=|19=|21=|29=|30=|31=|32=|37=|38=10000|39=0|41=|44=|48=VOD.L|50=AB|52=20131218-09:01:13|54=1|55=VOD|58=|59=1|60=20131218-09:01:13|10=168
8=FIX.4.4|9=178|35=8|49=A|56=B|1=accountA|6=229.5|11=00000001|12=|13=|14=1500|15=GBp|17=100000001|19=|21=1|29=1|30=XLON|31=229.5|32=1500|37=|38=10000|39=1|41=|44=|48=VOD.L|50=AB|52=20131218-09:02:01|54=1|55=VOD|58=|59=1|60=20131218-09:02:01|10=193
8=FIX.4.4|9=178|35=8|49=A|56=B|1=accountA|6=229.6125|11=00000001|12=|13=|14=6000|15=GBp|17=100000002|19=|21=1|29=1|30=XLON|31=229.65|32=4500|37=|38=10000|39=1|41=|44=|48=VOD.L|50=AB|52=20131218-09:01:03|54=1|55=VOD|58=|59=1|60=20131218-09:01:03|10=197
8=FIX.4.4|9=178|35=8|49=A|56=B|1=accountA|6=229.6353846|11=00000001|12=|13=|14=6500|15=GBP|17=100000003|19=|21=1|29=1|30=XLON|31=229.91|32=500|37=|38=10000|39=1|41=|44=|48=VOD.L|50=AB|52=20131218-09:01:14|54=1|55=VOD|58=|59=1|60=20131218-09:01:14|10=199
8=FIX.4.4|9=178|35=8|49=A|56=B|1=accountA|6=229.7496933|11=00000001|12=|13=|14=8150|15=GBP|17=100000004|19=|21=1|29=1|30=XLON|31=230.2|32=1650|37=|38=10000|39=1|41=|44=|48=VOD.L|50=AB|52=20131218-09:01:15|54=1|55=VOD|58=|59=1|60=20131218-09:01:15|10=199
8=FIX.4.4|9=178|35=8|49=A|56=B|1=accountA|6=229.6295|11=00000001|12=|13=|14=10000|15=GBP|17=100000005|19=|21=1|29=1|30=XLON|31=229.1|32=1850|37=|38=10000|39=2|41=|44=|48=VOD.L|50=AB|52=20131218-09:01:46|54=1|55=VOD|58=|59=1|60=20131218-09:01:46|10=197
