8=FIX.4.4|9=178|35=D|49=A|56=B|1=accountA|6=0|11=0000001|12=0.0002|13=2|14=|15= GBp|17=|19=|21=|29=|30=|31=|32=|151=10000|37=00000001|38=10000|39=|41=|44=|48=V OD.L|50=AB|52=20131218-09:01:00|54=1|55=VOD|58=|59=1|60=2013121809:01:00|10=184 
8=FIX.4.4|9=178|35=D|49=A|56=B|1=accountB|6=0|11=0000002|12=0.0002|13=2|14=|15= GBp|17=|19=|21=|29=|30=|31=|32=|151=4000|37=00000002|38=4000|39=|41=|44=|48=RIO .L|50=AD|52=20131218-10:24:07|54=2|55=RIO|58=|59=1|60=20131218-10:24:07|10=182 
8=FIX.4.4|9=178|35=D|49=A|56=B|1=accountA|6=0|11=0000003|12=0.0002|13=2|14=|15= GBp|17=|19=|21=|29=|30=|31=|32=|151=20100|37=00000003|38=20100|39=|41=|44=|48=B ARC.L|50=AR|52=20131218-11:18:22|54=1|55=BARC|58=|59=1|60=2013121811:18:22|10=186 
8=FIX.4.4|9=178|35=G|1=accountA|6=253.8854627|11=0000003|12=700|13=3|14=20100| 15=GBp|17=|19=|21=|29=|30=|31=|32=|151=0|37=00000003|38=20100|39=2|41=|44=|48= BARC.L|50=AR|52=20131218-16:33:12|54=1|55=BARC|58=|59=1|60=2013121816:33:12|10=195 
8=FIX.4.4|9=178|35=F|1=accountC|6=25.3156|11=0000004|12=|13=|14=12500|15=EUR| 17=100000018|19=|21=3|29=1|30=XPAR|31=0|32=0|151=2500|37=00000004|38=15000|39 =|41=|44=|48=EDF.PA|50=CD|52=2013121813:33:11|54=1|55=EDF|58=|59=1|60=20131218-13:33:11|10=206 
8=FIX.4.4|9=178|35=8|1=accountC|6=25.3156|11=0000004|12=|13=|14=12500|15=EUR| 17=100000018|19=|21=3|29=1|30=XPAR|31=0|32=0|151=2500|37=00000004|38=15000|39 =4|41=|44=|48=EDF.PA|50=CD|52=2013121813:33:11|54=1|55=EDF|58=|59=1|60=20131218-13:33:11|151=0|10=210 
8=FIX.4.4|9=178|35=8|49=A|56=B|1=accountA|6=0|11=0000001|12=0.0002|13=2|14=|15= GBp|17=|19=|21=|29=|30=|31=|32=|151=10000|37=00000001|38=10000|39=0|41=|44=|48= VOD.L|50=AB|52=20131218-09:01:00|54=1|55=VOD|58=|59=1|60=2013121809:01:00|10=185 
8=FIX.4.4|9=178|35=8|49=A|56=B|1=accountA|6=0|11=0000001|12=0.0002|13=2|14=|15= GBp|17=|19=|21=|29=|30=|31=|32=|151=10000|37=00000001|38=10000|39=0|41=|44=|48= VOD.L|50=AB|52=20131218-09:01:03|54=1|55=VOD|58=|59=1|60=2013121809:01:03|10=185 
8=FIX.4.4|9=178|35=8|49=A|56=B|1=accountA|6=229.5|11=0000001|12=|13=|14=1500|15 =GBp|17=100000001|19=|21=1|29=1|30=XLON|31=229.5|32=1500|151=8500|37=00000001|3 8=10000|39=1|41=|44=|48=VOD.L|50=AB|52=2013121809:01:11|54=1|55=VOD|58=|59=1|60=20131218-09:01:11|10=209 
8=FIX.4.4|9=178|35=8|49=A|56=B|1=accountA|6=229.6125|11=0000001|12=|13=|14=6000 |15=GBp|17=100000002|19=|21=1|29=1|30=XLON|31=229.65|32=4500|151=4000|37=000000 01|38=10000|39=1|41=|44=|48=VOD.L|50=AB|52=2013121809:01:13|54=1|55=VOD|58=|59=1|60=20131218-09:01:13|10=213 
8=FIX.4.4|9=178|35=8|49=A|56=B|1=accountA|6=229.6353846|11=0000001|12=|13=|14=6 500|15=GBp|17=100000003|19=|21=1|29=1|30=XLON|31=229.91|32=500|151=3500|37=0000 0001|38=10000|39=1|41=|44=|48=VOD.L|50=AB|52=2013121809:01:14|54=1|55=VOD|58=|59=1|60=20131218-09:01:14|10=215 
8=FIX.4.4|9=178|35=8|49=A|56=B|1=accountA|6=229.7496933|11=0000001|12=|13=|14=8 150|15=GBp|17=100000004|19=|21=1|29=1|30=XLON|31=230.2|32=1650|151=1850|37=0000 0001|38=10000|39=1|41=|44=|48=VOD.L|50=AB|52=2013121809:01:15|54=1|55=VOD|58=|59=1|60=20131218-09:01:15|10=215 
8=FIX.4.4|9=178|35=8|49=A|56=B|1=accountA|6=229.6295|11=0000001|12=|13=|14=1000 0|15=GBp|17=100000005|19=|21=1|29=1|30=XLON|31=229.1|32=1850|151=0|37=00000001| 38=10000|39=2|41=|44=|48=VOD.L|50=AB|52=2013121809:01:46|54=1|55=VOD|58=|59=1|60=20131218-09:01:46|10=210 
